:020000040800F2
:10000000C80200208D01000891010008930100083A
:100010009501000897010008990100080000000000
:100020000000000000000000000000009B0100082C
:100030009D010008000000009F010008A1010008C8
:10004000A3010008A3010008A3010008A301000800
:10005000A3010008A3010008A3010008A3010008F0
:10006000A3010008A3010008A3010008A3010008E0
:10007000A3010008A3010008A3010008A3010008D0
:10008000A3010008A3010008A3010008A3010008C0
:10009000A3010008A3010008A3010008A3010008B0
:1000A000A3010008A3010008A3010008A3010008A0
:1000B000A3010008A3010008A3010008A301000890
:1000C000A3010008A3010008A3010008A301000880
:1000D000A3010008A3010008A3010008A301000870
:1000E000A3010008A3010008A301000800F002F822
:1000F00000F03CF80AA090E8000C82448344AAF186
:100100000107DA4501D100F031F8AFF2090EBAE883
:100110000F0013F0010F18BFFB1A43F0010318473B
:10012000441E0000641E0000103A24BF78C878C145
:10013000FAD8520724BF30C830C144BF04680C60ED
:10014000704700000023002400250026103A28BF35
:1001500078C1FBD8520728BF30C148BF0B60704739
:100160001FB501F0F8FE1FBD10B510BD01F0B6FEC1
:100170001146FFF7F5FF01F0DDFA01F0D4FE03B4FC
:10018000FFF7F2FF03BC01F0DFFE00000848004764
:10019000FEE7FEE7FEE7FEE7FEE7FEE7FEE7FEE737
:1001A000FEE7FEE703480449024A044B704700009B
:1001B000ED000008C8000020C8020020C800002090
:1001C000FF490843FF490860704770B50F24C278A3
:1001D00001784FF0E0230126E2B1D3F80C2D194449
:1001E00002F4E062C2F5E062120AC2F10405D440F2
:1001F0004278AA408578254015432A0181F80024D9
:10020000007800F01F018E40400903EB8000C0F829
:10021000006170BD01F01F008640480903EB8000BB
:10022000C0F8806170BDE84A11400143E7480160B1
:1002300070474FF0E0220029D2F8101D01D0014391
:1002400000E08143C2F8101D70474FF0E021042800
:10025000086903D020F004000861704740F00400F2
:10026000FAE7DB48016841F0010101604168D94AC1
:10027000114041600168D84A11400160016821F4D1
:1002800080210160416821F4FE0141604FF41F01AB
:1002900081607047CE490A6822F480320A600A6899
:1002A00022F480220A60B0F5803F07D0B0F5802F9D
:1002B00003D1086840F4A02008607047086840F443
:1002C0008030F9E7034600205909C14A01290AD0C4
:1002D00002290AD0516A03F01F02012393400B4206
:1002E00000D0012070471168F5E7116AF3E730B5D7
:1002F00000244FF4A0653120FFF7E4FF641CAC42FA
:1003000001D00028F7D03120FFF7DCFF002800D013
:10031000012030BDAE4A116821F0F80141EAC00069
:1003200010607047AD4908607047A94B5A68084390
:1003300022F47C12104358607047A8490866704741
:10034000A34A516821F00301014351607047A0485E
:10035000406800F00C0070479D4A516821F0F001A0
:100360000143516070479A4A516821F4E0610143AA
:1003700051607047964A516821F4605141EAC000CB
:1003800050607047924A0029517A01D0014300E041
:100390008143517270479249086070478C4A516896
:1003A00021F440410143516070478E4900220A7098
:1003B00001F82029012802D0042802D1052081F863
:1003C0002000704788490860704781490A6A0243E3
:1003D0000A6270478549086070477D4A10B55168C8
:1003E000834B11F00C0103D0042901D0082901D05E
:1003F000036012E05168536801F470114FF0020479
:1004000013F4803F04EB914102D053689B0301D564
:10041000784B00E0764B594301605168764B01F010
:10042000F00109095C5C0168E1404160546804F432
:10043000E064240A1C5D21FA04F48460546804F426
:100440006054E40A1B5DD940C16052686A4B02F4F3
:100450004042920B0E3B9A5CB1FBF2F1016110BD80
:100460005B4A0029516901D0014300E08143516199
:100470007047574A0029916901D0014300E0814348
:1004800091617047524A0029D16901D0014300E0CF
:100490008143D16170474E4A0029D16801D00143A0
:1004A00000E08143D1607047494A0029116901D0B9
:1004B000014300E081431161704750490860704773
:1004C0004649C86470474249C87170474048416A0C
:1004D00041F08071416270473D4A014600209268B8
:1004E0000A4200D001207047394988727047444958
:1004F00000B5884206D101210420FFF7CCFF00217E
:1005000004203BE03F49884206D101210820FFF743
:10051000C2FF0021082031E03B49884206D1012179
:100520001020FFF7B8FF0021102027E0374988424C
:1005300006D101212020FFF7AEFF002120201DE081
:100540003349884206D101214020FFF7A4FF002152
:10055000402013E02F49884206D101218020FFF777
:100560009AFF0021802009E02B49884209D1831598
:1005700001211846FFF78FFF002118465DF804EBB4
:1005800089E700BD00B501210846FFF784FF00217F
:1005900001205DF804EB7EE7F0B5CC78002204F092
:1005A0000F03E40601D58C7823430C884FF00F0C21
:1005B00014F0FF0F4FF0010E4AD005682EE0000046
:1005C0000000FA050CED00E080FFFF1F08ED00E0E1
:1005D000001002400000FFF8FFFFF6FE000042425C
:1005E000D800424220100240800442423C04424271
:1005F00000127A0000093D000E0000204004424233
:1006000000080140000C01400010014000140140AE
:1006100000180140001C0140002001400E880EFA25
:1006200002F42640A6420FD196000CFA06F7BD430D
:1006300003FA06F63543CE78282E02D0482E02D093
:1006400002E0446100E00461521C082AB6D3056050
:100650000A88FF2A1DD94568002202F108060EFA11
:1006600006F40E882640A6420FD196000CFA06F733
:1006700025EA070703FA06F5CE783D43282E00D178
:100680004461CE78482E00D10461521C082AE4D37C
:100690004560F0BD4FF6FF71018002218170042199
:1006A000C17070470246002092680A4200D00120C3
:1006B0007047806880B2704702460020D2680A42C4
:1006C00000D001207047C06880B270470161704758
:1006D000416170470AB10161704741617047C16073
:1006E000704741F4803282618161826181698069F1
:1006F000704710B5FF4B1A684FF68074224042EAEB
:1007000000100843186010BDFB49C8617047F0B580
:10071000F84C002801DAE36900E06368420D120139
:1007200085B2C0F301579540C0F30346032F05D0AF
:10073000C2020AD50322B240934307E023F070625D
:10074000636823F07063636002E0AB4343F0706260
:1007500001B12A43002801DAE261F0BD6260F0BD18
:1007600010B58A0721F00304E249120F21440F2338
:100770008C6893409C438C608B68904003438B60F3
:1007800010BDDE4908607047DD4A116801F038018C
:10079000014311607047DA490A6822F008020A60D2
:1007A0000A6802430A607047D5490A6822F01002BD
:1007B0000A600A6802430A607047D148D149416023
:1007C000D14941607047CE48CE494160CE49416031
:1007D0007047CB48016941F0800101617047C8480A
:1007E000016941F0800101617047C5490420CA6870
:1007F000D20701D001207047CA68520701D50220F4
:100800007047C968C906FBD50320704700B5034689
:10081000FFF7EBFF02E0FFF7E8FF5B1E012803D0C4
:10082000002B00D1052000BD002BF4D1FAE770B5F4
:1008300005464FF430263046FFF7E8FF042811D173
:10084000AF4C206940F0020020616561206940F0F2
:10085000400020613046FFF7D9FF216941F6FD7263
:100860001140216170BD30B54FF430252846FFF7A7
:10087000CDFF042810D1A24C206940F00400206173
:10088000206940F0400020612846FFF7BFFF216942
:1008900041F6FB721140216130BD00B50346FFF700
:1008A000A4FF02E0FFF7A1FF5B1E012803D0002B8D
:1008B00000D1052000BD002BF4D1FAE730B54FF48C
:1008C00030252846FFF7E9FF042810D18C4C206919
:1008D00040F004002061206940F04000206128467B
:1008E000FFF7DBFF216941F6FB721140216130BD4A
:1008F00083490020C969890700D50120704770B578
:10090000A525FFF7F5FF00B100254FF4302630464E
:10091000FFF77CFF042827D1794C7A48A0607A48F9
:10092000A060206940F020002061206940F0400074
:1009300020613046FFF76AFF41F6EF7604280ED1BA
:10094000206941F6DF7108402061206940F0100005
:1009500020616E4805804FF40050FFF757FF0528CF
:1009600002D021693140216170BDF0B505464FF4D8
:10097000005C0E466046FFF749FF042814D1604C26
:10098000206940F0010020612E806046FFF73EFFA5
:1009900041F6FE77042804D1300C68806046FFF7EA
:1009A00035FF216939402161F0BDF0B505464FF4AE
:1009B00000570E463846FFF729FF04280CD1504C4B
:1009C000206940F0010020612E803846FFF71EFFAD
:1009D0002169BA1E11402161F0BDF0B505464FF402
:1009E00000570E463846FFF711FF042813D1444C38
:1009F0004448A0604448A060206940F01000206195
:100A00002E803846FFF702FF052804D0216941F601
:100A1000EF7211402161F0BD2DE9F043C043C4B233
:100A2000C0F30725C0F30746070E4FF400594846A8
:100A3000FFF7ECFE04283AD1DFF8C480314AC8F849
:100A40000820314AC8F80820D8F8102042F01002D7
:100A5000C8F81020DFF8B8C0FF2C06D0ACF8084862
:100A60004846FFF7D3FE042818D1FF2D06D0ACF876
:100A70000A584846FFF7CAFE04280FD1FF2E06D0B9
:100A8000ACF80C684846FFF7C1FE042806D1FF2FDA
:100A900006D0ACF80E784846FFF7B8FE052806D019
:100AA000D8F8102041F6EF731A40C8F81020BDE8BE
:100AB000F08370B506464FF430252846FFF7A6FEB2
:100AC000042829D10E4C0F48A0600F48A06020696F
:100AD00040F020002061206940F04000206128465D
:100AE000FFF794FE41F6DF71042816D0052813D0D5
:100AF00022690FE00000014000002042DC0020429B
:100B00000020024023016745AB89EFCD00F8FF1FAD
:100B100000F0FF1F0A40226170BD2069084020617B
:100B2000206940F010002061FF480EB1002100E074
:100B3000A521A0F800182846FFF768FE0528EBD08D
:100B4000216941F6EF721140216170BDF0B5F84C9A
:100B50000646F6480D461746A060F648A0604FF4DA
:100B6000005C6046FFF752FE042813D1206940F074
:100B7000100020613D43F049354345F0F8000880FE
:100B80006046FFF743FE052804D0216941F6EF7265
:100B900011402161F0BDE648C06980087047E44813
:100BA000006A7047E24900200968890600D50120E3
:100BB0007047DF4A0029116901D0014300E08143F9
:100BC0001161704701460020D94A012903D0D2683B
:100BD0000A4203D17047D169C907FBD00120704791
:100BE000D349C8607047D2490420CA68D20701D0EF
:100BF00001207047CA68520701D502207047C968B2
:100C0000C906FBD503207047CC4900B5884202D104
:100C10000121C31486E0B0F1804F09D0C849884251
:100C20000DD101210220FFF73FFC0021022064E0EA
:100C300001210846FFF738FC002101205DE0C14991
:100C4000884206D101210420FFF72EFC0021042058
:100C500053E0BD49884206D101210820FFF724FC5A
:100C60000021082049E0B949884206D1012110201D
:100C7000FFF71AFC002110203FE0B549884206D159
:100C800001212020FFF710FC0021202035E0B14990
:100C9000884202D10121431444E0AF49884202D185
:100CA0000121CB043EE0AD49884202D101210B0570
:100CB00038E0AB49884202D101214B0532E0A94915
:100CC000884206D101214020FFF7EEFB00214020A1
:100CD00013E0A549884206D101218020FFF7E4FBFB
:100CE0000021802009E0A14988420AD18315012111
:100CF0001846FFF7D9FB002118465DF804EBFFF713
:100D0000D3BB9B49884202D101210B040AE09949D7
:100D1000884202D101214B0404E0974988420AD15C
:100D200001218B041846FFF7B6FB002118465DF839
:100D300004EBFFF7B0BB00BD30B502887F4C854D9A
:100D4000A0420DD0A8420BD0B0F1804F08D07C4B10
:100D5000984205D07B4B984202D07B4B984203D1FE
:100D600022F070034A881A43784B984206D0784B99
:100D7000984203D022F44073CA881A4302808A88BA
:100D800082850A880285A0420AD0A84208D0784A03
:100D9000904205D0774A904202D0774A904201D1E2
:100DA000097A01860121818230BD30B5028C22F0A2
:100DB00001020284028C8388048B22F0020224F058
:100DC00073050C882C430D8915434A882A435B4DD3
:100DD000A8420BD05F4DA84208D0654DA84205D06F
:100DE000644DA84202D0644DA8420DD122F00805FE
:100DF0004A8923F440732A4322F004058A882A434F
:100E00008D891D43CB892B4383800483C9888186C8
:100E1000028430BD30B5028C22F010020284028CB4
:100E20008388048B22F0200224F4E6450C882406F3
:100E300045EA14440D892D0542EA15454A881205F4
:100E400045EA12423D4DA84202D0424DA84215D17A
:100E500022F080054A8923F44063120545EA1242D4
:100E600022F040058A88120545EA12428D89AD04B8
:100E700043EA1545CB899B0445EA134383800483E9
:100E8000C9880187028430BD30B5028C22F480729B
:100E90000284028C8388848B22F4007224F0730510
:100EA0000C882C430D892D0642EA15454A88120606
:100EB00045EA1242214DA84202D0264DA84215D142
:100EC00022F400654A8923F44053120645EA12428F
:100ED00022F480658A88120645EA12428D892D0522
:100EE00043EA1545CB891B0545EA13438380848378
:100EF000C9888187028430BD30B5028C22F48052CB
:100F00000284048C8288838B23F4E6450B881B06BD
:100F100045EA134324F400550C89240745EA144498
:100F20004D882D072AE0000000F0FF1F23016745D0
:100F300000200240AB89EFCD02F8FF1F002C0140DA
:100F40000004004000080040000C00400010004079
:100F50000014004000340140004C014000500140AA
:100F60000054014000180040001C004000200040D8
:100F700000400140004401400048014044EA15455A
:100F8000F84CA04202D0F84CA04205D122F4804493
:100F90008A89920544EA124282808383C988A0F834
:100FA0004010058430BD828B22F440628283828BA4
:100FB00042EA012282837047828B22F00C028283F4
:100FC000828B0A4382837047028B22F44062028341
:100FD000028B42EA01220283704770B5048C24F030
:100FE00010040484068B048C26F473461B0746EA1F
:100FF0001343120643EA12420D05DA4B2D0C9842B8
:101000000ED0D94B98420BD0B0F1804F08D0D74BBF
:10101000984205D0D64B984202D0D64B984205D183
:1010200024F02001294341F0100104E024F0A00342
:101030000B4343F010010283018470BD028B22F048
:101040000C020283028B0A430283704730B5048C82
:1010500024F001040484058B048C1B0542EA13432D
:1010600025F0F305BF4A2B4390420ED0BE4A904272
:101070000BD0B0F1804F08D0BC4A904205D0BC4A9A
:10108000904202D0BB4A904202D124F0020201E019
:1010900024F00A020A4342F001010383018430BDB7
:1010A0002DE9F05F0D4604460888AE4EAE4FDFF8DE
:1010B000BC82DFF8BC924988AA882B894FF0804A0D
:1010C00028B104280BD00828934610D03DE02046D4
:1010D000FFF7BCFFE9882046BDE8F05FAEE7204699
:1010E000FFF77BFFE9882046BDE8F05F6CE7208CC6
:1010F00020F480702084A28B208C1B0522F0F30248
:101100004BEA13434FEA016C13434FEA1C4EB442BF
:101110000AD0BC4208D0544506D0444504D04C45C2
:1011200002D0944A944204D120F4007040EA0E00A8
:1011300002E020F42060084340F48070A383208400
:10114000E9882046BDE8F05F36E7208C20F4805027
:101150002084B4F81CC0208C0A074FEA124E2CF4ED
:10116000734C4FEA0B621B074CEA124242EA1343EC
:10117000B4420AD0BC4208D0544506D0444504D0FD
:101180004C4502D07B4A944204D120F4005040EAFE
:101190000E0002E020F40240084340F48050A38394
:1011A0002084E9882046BDE8F05FFCE62DE9F041A7
:1011B0000C46002549880746012601B90225A28868
:1011C000012A00D10226208823890028384610D021
:1011D000FFF703FFE1883846FFF7F6FE2389324622
:1011E00029463846FFF732FFE1883846BDE8F0412E
:1011F00024E7FFF72BFFE1883846FFF71FFF23891D
:10120000324629463846FFF7E8FEE1883846BDE811
:10121000F041D9E610B50A884B88CC881A438B88F0
:1012200023431A430B891A434B8989891A430A437A
:10123000A0F8442010BD4FF6FF718180002101808D
:10124000C18041800172704700210180418081800E
:10125000C180018141818181C1817047002101806C
:10126000418001228280C18001817047002101807C
:1012700041808180C1800181418181817047002945
:10128000018802D041F0010101E021F0010101805B
:101290007047002930F8441F02D041F4004101E0BA
:1012A000C1F30E0101807047002A828901D00A43F0
:1012B00000E08A4382817047818270471143A0F821
:1012C00048107047002A828901D00A4300E08A430F
:1012D00082817047018921F00701018170470289ED
:1012E00022F070020A4302817047028922F07002E4
:1012F0000A430281018941F007010181704770B5FD
:101300000D4611460446602D4FF001020BD0FFF749
:101310009DFE208920F0700028432081208940F024
:101320000700208170BDFFF758FEF2E710B5048971
:1013300042EA0323E4B20B432343038110BD10B5FB
:101340000446FFF7F3FF208940F07700208110BDAD
:1013500010B50446FFF7EAFF208940F48040208161
:1013600010BD0000002C014000340140000400408A
:1013700000080040000C004001858282704702880E
:1013800022F070020A430280704770B50589048B11
:10139000068C25F007050D434FF6FC410C4040F24A
:1013A00001110C4326F0220642EA03113143058164
:1013B0000483018470BD028B22F070020A43028311
:1013C0007047028B22F4E04242EA01210183704718
:1013D000828B22F070020A4382837047828B22F450
:1013E000E04242EA0121818370470029018802D04E
:1013F00041F0800101E021F0800101807047002967
:10140000818802D041F0040101E021F004018180D3
:1014100070470029818802D041F0080101E021F0E5
:101420000801818070470029818802D041F00101C4
:1014300001E021F0010181807047028B22F0080257
:101440000A4302837047028B22F4006242EA0121C0
:1014500001837047828B22F008020A43828370471F
:10146000828B22F4006242EA012181837047028B61
:1014700022F004020A4302837047028B22F4806246
:1014800042EA012101837047828B22F004020A4361
:1014900082837047828B22F4806242EA0121818339
:1014A0007047028B22F080020A4302837047028B4E
:1014B000C2F30E0242EA012101837047828B22F0BF
:1014C00080020A4382837047828BC2F30E0242EA93
:1014D000012181837047028C22F002020A430284B8
:1014E0007047028C22F008020A4302847047028C83
:1014F00022F0200242EA011101847047028C22F09E
:10150000800242EA011101847047028C22F40072C9
:1015100042EA012101847047028C22F4006242EA0F
:10152000012101847047028C22F4005242EA013109
:101530000184704710B50123048C8B409C430484C4
:10154000038C8A40134303840AE710B50423048CF8
:101550008B409C430484038C8A4013430384FFE63E
:1015600030B50124058C00F118038C40A543058497
:1015700079B108290DD0091F88B203EB500001682A
:1015800021F4E041016001681206120C1143016070
:1015900030BD03EB5100016821F07001016001686A
:1015A000F4E70029018802D041F0020101E021F0B6
:1015B0000201018070470029018802D041F0040136
:1015C00001E021F00401018070470029818802D0E8
:1015D00041F0800101E021F08001818070470288A4
:1015E00022F00802028002880A4302807047828843
:1015F00022F07002828082880A43828070470289CA
:1016000022F00702028102890A430281704702899F
:1016100022F08002028102890A430281704781849C
:101620007047818570478186704701877047818741
:101630007047A0F840107047028822F44072028080
:1016400002880A4302807047808E7047008F70477F
:10165000808F7047B0F840007047808C7047008DD5
:10166000704702460020128A0A4200D001207047CB
:10167000C9430182704702460020138A92890B42B7
:1016800002EA010202D0002A00D001207047C943BB
:101690000182704710B5FF242C49262000F0B3FAD0
:1016A00010F0FF0F00D100BF2848801C00F0D3FAD3
:1016B00010F0FF0F00D100BF254824492039D1F890
:1016C00022104160001D00F030FB10F0FF0F00D130
:1016D00000BF1F4B03211B1D1A1D602000F056FB8D
:1016E00010F0FF0F01D000203AE600BF002017499C
:1016F00010390854401CC0B21028FAD313490120F5
:10170000103900F08FFBA4F1010410F0FF0FE4B2D8
:1017100002D0002CF2D100E000BF0C49012020399A
:1017200000F05CFB10F0FF0F00D100BFBDE81040DF
:1017300000F0B8BB092000F03DF8482000F067F841
:1017400000F0CAF9FFF7A6FFFCE700004400002004
:101750000000002010B5FEF784FD0120FEF7E2FD39
:101760002120FEF7AFFD0028FAD01020FFF71CF86B
:101770000220FFF709F80020FEF7EEFD0020FEF73B
:10178000F9FD4FF48060FEF7EEFD4FF4601100208C
:10179000FEF7CBFD0120FEF7D0FD3920FEF792FDCC
:1017A0000028FAD00220FEF7CBFDFEF7D0FD082876
:1017B000FBD110BD2F4A0021136843F4803313601E
:1017C00013685B0CFCD04FF480635360801E536839
:1017D000C0B243EA80405060506840F480305060AE
:1017E0002548036843F032030360106840F08070BE
:1017F00010601068400EFCD0506840F0020050604D
:1018000002E05068C0F381010229FAD170474FF01D
:10181000E0210A6922F004020A611849C0084FF465
:101820007A72087050434880704714494988484389
:101830004FF0E021486100238B61012008610869B5
:10184000C20701D0C003FAD50B618B6170470B4909
:10185000097848434FF0E021486100238B61012063
:1018600008610869C20701D0C003FAD50B618B611A
:101870007047000000100240002002401E000020BF
:1018800000210AE000BF00BF00BF00BF00BF00BFD3
:1018900000BF00BF00BF491C89B28142F2D370472C
:1018A00038B501218020FEF7E4FD40F20270ADF86A
:1018B000000003208DF8020010208DF80300694617
:1018C000FF4C2046FEF768FEE114ADF800104821F9
:1018D0008DF8031069462046FEF75EFE38BD2DE9FF
:1018E000F041F74F002405464FF480687E15280626
:1018F0004146384602D5FEF7E9FE01E0FEF7E8FE74
:1019000031463846FEF7E4FE31463846FEF7DEFE45
:101910006806641C050EE4B2082CE8D3BDE8F0812B
:101920002DE9F041E64D07460E464FF480742146FE
:101930002846FEF7CDFE7E2000EA4700FFF7CFFFE6
:101940003046FFF7CCFF21462846BDE8F041FEF7C0
:10195000BDBE2DE9F0410024D94E25464FF4006864
:101960004FF400776006040E39463046FEF7B0FEAD
:1019700041463046FEF796FE08B144F00104394670
:101980003046FEF7A3FE6D1CEDB2082DEAD32046CB
:10199000C4E770B5CA4E04464FF4807529463046F8
:1019A000FEF796FE7E2000EA440040F08000FFF73C
:1019B00096FFFFF7CEFF044629463046FEF786FE27
:1019C000204670BD70B50C460546FFF7E2FF40EAC1
:1019D00004012846BDE87040A2E710B51420FFF7C7
:1019E000D8FF800704D10321BDE810401420E9E7A7
:1019F00010BD70B50C460546FFF7CBFF20EA040189
:101A00002846BDE870408BE710B5412801D0FF2083
:101A100010BD08210846FFF7ECFF3D211120FFF71C
:101A20007FFF86211720FFF77BFF7F212620FFF70E
:101A300077FF1E212D20FFF773FF00212C20FFF7D9
:101A40006FFF8D212A20FFF76BFF3E212B20FFF730
:101A500067FF4FF47A70FFF713FFFFF7BEFF002018
:101A600010BD03211420C4E710B5954C0221204677
:101A7000FEF72CFE0A20FFF703FF02212046FEF7A7
:101A800027FE0A20FFF7FCFE02212046FEF71EFE7D
:101A90000A20FFF7F5FE0F210120FFF741FF0A2082
:101AA000FFF7EEFE3D211120FFF73AFF1E212D200A
:101AB000FFF736FF00212C20FFF732FF8D212A206F
:101AC000FFF72EFF3E212B20FFF72AFF4021152094
:101AD000FFF726FF002010BD10B5FFF7E1FEFFF76E
:101AE000C3FFFFF7BEFFFFF778FFBDE810404120BE
:101AF0008AE72DE9FF5F0025DDF838B081460F4603
:101B000092464FF0FE082E460C2805D0B9F10E0F74
:101B100004D11225102601E07725302645F08001FA
:101B20000220FFF7FDFE80210420FFF762FF002165
:101B30000120FFF7F5FE80210A20FFF743FF002474
:101B400004E0395D0920FFF7EBFE641C5445F8D32F
:101B500049460120FFF7E4FEB9F10C0F03D18021C3
:101B60000D20FFF72FFF4FF4FA640420FFF711FF59
:101B70000746641E03D0F80701D13742F5D0802113
:101B80000D20FFF736FF3CB10620FFF702FF10F0F3
:101B90001B0F0DD04FF0FE0880210C20FFF712FF25
:101BA00000210120FFF7BCFE04B04046BDE8F09FD5
:101BB0002F404FF00008F80701D04FF0FF08B9F1AF
:101BC0000C0FE9D10A20FFF7E4FE05460C20FFF7D1
:101BD000E0FE10F007004FEAC50101D008390144CA
:101BE000CBF8001025B1122D00D91225002407E0F2
:101BF0000125FBE70920FFF7CCFE03990855641C7B
:101C0000AC42F7D3C8E730B50C460546082187B08B
:101C10000846FFF7EEFE07210D20FFF781FE0321A6
:101C20001420FFF7CFFE06AB009301AB8DF80450F4
:101C3000012219460C20FFF75CFF10B90699102904
:101C400002D0FE2007B030BD9DF8041021709DF831
:101C500005106170F6E770B50646082188B00024CB
:101C60000846FFF7C6FE00210D20FFF759FE802130
:101C70000E20FFF7BEFE93208DF8040006AB202057
:101C800000938DF8050001AB022219460C20FFF7E6
:101C900030FF05000DD1002101A8425C7254425C66
:101CA000491C5440C9B20429F7D3405CA04200D07B
:101CB000FE2580210E20FFF785FE08B0284670BD66
:101CC000001C01402DE9F04106460F46154604214F
:101CD0000520FFF78EFE00210120FFF721FE802165
:101CE0000A20FFF76FFE002405E0315D0920FFF7B1
:101CF00017FE641CE4B2BC42F7D303210120FFF7B6
:101D00000FFEFF240520FFF744FEA4F1010414F0A8
:101D1000FF0401D04007F5D52220FFF73AFE2870D6
:101D20002120FFF736FE6870F8E510B588B09321E2
:101D30008DF8041070218DF8051000218DF80A101F
:101D400001AA5418435CA370445C9DF80A30491CF6
:101D50006340C9B28DF80A300429F2D3D21D07219D
:101D600001A8FFF7AFFF08210846FFF742FE06ABC8
:101D7000009301AB092219460C20FFF7BAFE10B9F7
:101D80000699182900D0FE2008B010BD30B587B0E4
:101D90008DF804008DF80510002001A9145C0D18C1
:101DA000401CC0B2AC700628F8D300200C181A5C96
:101DB000401CC0B222720628F8D306AB00930B4633
:101DC0000C220E20FFF795FE040004D10820FFF737
:101DD000E0FD000700D4FE24204633E730B587B08D
:101DE0000C4630218DF8041001AD8DF80500AA1CB9
:101DF00002212846FFF766FF06AB009301AB0422E1
:101E000019460C20FFF775FE10B90699902901D0EC
:101E1000FE2017E70023E95CE1545B1CDBB2102BCA
:101E2000F9D30FE730B587B00C46A0218DF8041028
:101E300001AD8DF80500AA1C02212846FFF742FFDC
:101E400006AB009301AB042219460C20FFF751FEAC
:101E500030BB0698042823D19DF8040000F00F0041
:101E60000A281DD10020215C2954401CC0B2102832
:101E7000F9D305AA102101A8FFF724FF06AB0093B0
:101E800001AB122219460C20FFF733FE40B9069928
:101E9000042905D19DF8041001F00F010A2900D092
:101EA000FE20CFE600B587B050208DF8040000205A
:101EB0008DF805000DF10602022101A8FFF702FFCF
:101EC00006AB009301AB042219460C20FFF711FE6C
:101ED00007B0002000BD704770477047754600F09E
:101EE00029F8AE4605006946534620F007008546AE
:101EF00018B020B5FEF756F9BDE820404FF00006B7
:101F00004FF000074FF000084FF0000B21F00701E1
:101F1000AC46ACE8C009ACE8C009ACE8C009ACE824
:101F2000C0098D4670470446AFF300802046FEF797
:101F300026F90000004870476400002001487047FF
:101F4000704700BF6800002001491820ABBEFEE7C3
:101F500026000200704710B5FFF7F0FF4FF00001B8
:101F6000016010BD841F0008000000202400000054
:101F700028010008A81F000824000020A402000077
:101F8000440100080204060800000000FFFFFFFFF4
:101F9000FFFF000000000102030401020304060722
:081FA000080900000000000028
:040000050800018D61
:00000001FF
