S0820000433A5C55736572735C56616C656E74696E5C4465736B746F705C476974506F727461626C655C4170705C4769745C50726F6A656B745C436F646577617272696F725C476573616D7470726F6772616D6D5C53575F41575F33325F416C61726D616E6C6167655F5631305C62696E2F415733325F426173655F5632302E6162732E
S1238000C71800B67027F93F70CD83C8CD8092CD824F20EC6E00206E60356E00366E5034C0
S12380206E0820818BB6346E5034B636BB7CB736B635B97BB7350002041002200211028ACC
S123804080A607B77BA6AEB77CA601C7010A81C60109A1142708C601094CC7010981A60074
S1238060C70109C6010AA1002705A101270F81A607B77BA6AEB77CA601C7010A81A606B771
S12380807BA666B77CA600C7010A8145809796010381320103FD814581A39601364501146E
S12380A0960138A620C7013ACD8346320107AF019601076501902701814580C696010345FE
S12380C00000960107814581C3960136450114960138A620C7013ACD8346320107AF019620
S12380E00107650190277281CD842D4581E3960136450114960138A620C7013ACD8346B633
S123810072A101273E81CD8449CD8411458203960136450114960138A620C7013ACD834647
S1238120B672A1012733B678A10127018145816A96010345000096010712721274A600C77A
S123814001058145810696010345000096010712721274A600C70105814580E896010345C1
S123816000009601071272127481CD8449B678A1012606450000960101CD804F4582039663
S12381800136450114960138A620C7013ACD8346B672A10127C33201015C960101659C4000
S12381A027A18156616C656E74696E204265726E6172642020202020203541454C2020202C
S12381C0202020204D617475726170726F6C6A656B74202020416C61726D616E6C61676591
S12381E020202020416C61726D20496E616B74697620202020202020202020202020202038
S123820020202020416C61726D20416B7469762020202020202020202020202020202020AE
S12382202020202020202020416C61726D21202020202020202020202020202020202020EC
S1238240202020A600C7011345825496011181320111FD81C601134CC70113A10A26064516
S1238260826696011181A603CD8301CD832BA603CD8301CD832BA603CD8301CD832BA638AC
S1238280CD8301CD832BA60CCD8301CD832BA606CD8301CD832B45829D96011181A680CD98
S12382A083014582AD9601114FC7011381450113AF01F6CD8316CD8336C601134CC7011383
S12382C0A11026EC4582CF9601114FC7011381A6C0CD83014582DF9601114FC701138145F9
S12382E00123AF01F6CD8316CD8336C601134CC70113A11026EC45829D9601114FC70113CA
S123830081130C9D9DB7009D9D9D9D100C9D9D9D9D9D9D110C81120C9D9D9D9DB7009D9D69
S12383209D9D9D9D100C9D9D110C81450500AFFF65000026F981C601344CC70134A11426B6
S1238340F54FC70134814FC70135320136F6AF01960136320138F7AF01960138C601354C07
S1238360C70135C1013A26E2818CAE0A52878B86AB30320138E702868CAE0A52878B86ABBB
S123838030320138E701868CAE0A528B86A1002707AB30320138F781A620320138F7E6018D
S12383A0A1302604A620E701818CAE0A52878B86AB30320138E70286AE0A528B86AB303284
S12383C00138F7A62EE70181000A08A600B772B773200BB6734CB773A10526021072020AFB
S12383E008A600B774B775200BB6754CB775A10526021074040A08A600B776B777200BB65C
S1238400774CB777A1052602107681A60AC70100811F06C601004CC70100A132260EA600EC
S1238420C701000C06031C06811D0681811D06C601004CC70100A132260EA600C701000E12
S123844006031E06811F068181090A0210783F78818145086F94CD84A7CD84B5A600B70042
S1238460B706B7086EFF016E01036E00056EC0076E00096E000B6E030DCD848FCD84C3CDC5
S1238480808BCD8041CD8014CD82439ACC8000A67CB748A600C71803B74CB74BB74AA60110
S12384A0B749A60CB74D81A600450070F7AF016500FF26F881A600450100F7AF0165086B11
S12384C026F881A6F5C71808818BA6F5C71808B6714CB771A10626074FB771A601B7708AAB
S10684E0809D80F8
S123FFCC84C984E184E184E184E184E184E184E184E184E184E184E184E184E184E180249A
S117FFEC84E184E184E184E184E184E184E184E184E184529A
S9030000FC
