:020000040800F2
:1000000000040020470100085501000857010008BE
:10001000590100085B0100085D01000800000000B4
:100020000000000000000000000000005F01000868
:10003000610100080000000063010008650100087C
:1000400067010008670100086701000867010008F0
:1000500067010008670100086701000867010008E0
:1000600067010008670100086701000867010008D0
:1000700067010008670100086701000867010008C0
:1000800067010008670100086701000867010008B0
:1000900067010008670100086701000867010008A0
:1000A0006701000867010008670100086701000890
:1000B0006701000867010008670100086701000880
:1000C0006701000867010008670100086701000870
:1000D00067010008790A0008670100086701000845
:1000E0006701000867010008670100086701000850
:1000F0006701000867010008670100086701000840
:10010000670100086701000867010008670100082F
:10011000670100086701000867010008670100081F
:10012000670100086701000867010008670100080F
:10013000DFF80CD001F0C6FE004800477306000847
:1001400058040020704708488047084981F3088810
:1001500007480047FEE7FEE7FEE7FEE7FEE7FEE7AB
:10016000FEE7FEE7FEE7FEE7450100085804002031
:100170003101000870B504460D46204600F01FFD11
:1001800070BD70B5054600F025FD044600F017FD72
:1001900070BD10B50446204600F011FD10BD0146AB
:1001A0004FF0FF30704700BFFEE7000036490143C3
:1001B000364A1160704770B5002100230F22C478C1
:1001C0004CB3324C246804F4E064C4F5E0644FEAB4
:1001D0001421C1F1040322FA01F2447804FA03F174
:1001E000847804EA020444EA01014FEA0111284C30
:1001F0000678A155047804F01F054FF0010404FAB5
:1002000005F405784FEA65154FF0E02606EB850505
:10021000C5F8004109E0047804F01F050124AC4052
:100220001C4D0678761145F8264070BD1A4A0A40E2
:1002300002431A4B1A60704741B1194A126842EAE8
:1002400000024FF0E023C3F8102D07E0144A1268B3
:1002500022EA00024FF0E023C3F8102D7047042873
:1002600008D14FF0E021096941F004014FF0E0228C
:10027000116107E04FF0E021096921F004014FF01E
:10028000E0221161704700000000FA050CED00E06B
:1002900000E400E080E100E080FFFF1F08ED00E0E7
:1002A00010ED00E02DE9F04706460F4690469946CE
:1002B0000225052400BF43463A463146602000F03F
:1002C00095FF0546601EC4B20DB1002CF3DC02257B
:1002D000052400BF4946304600F0DEFF0546601E9B
:1002E000C4B20DB1002CF5DC2846BDE8F08710B58E
:1002F00002460120002302E050435C1CE3B28B4223
:10030000FADB10BD2DE9F04786B007468846154652
:100310001E46DDE90E9A0023009340F23F13EF22C0
:100320000021084601F075F9FF48B5FBF0F03030C8
:10033000C0B28DF80800012412E021460A20FFF720
:10034000D6FFF94991FBF0F0B5FBF0F00A21B0FBC4
:10035000F1F201FB1200303002A90855601CC4B252
:100360000A2CEADB2E208DF8120006F13000C0B214
:100370008DF8130000208DF814004B4602AA414668
:100380003846CDF800A001F0A7FB06B0BDE8F08725
:100390002DE9F04706460F4690469946022505246A
:1003A00000BF43463A463146602000F01FFF054635
:1003B000601EC4B20DB1002CF3DC0225052400BF81
:1003C0004946304600F03DFF0546601EC4B20DB1FF
:1003D000002CF5DC2846BDE8F0872DE9F04786B013
:1003E00006468846914600250027002402ABCF4AE6
:1003F000CF490420FFF7CCFF82469DF8134024022A
:100400009DF81400044424029DF8150004442402BD
:100410009DF816000444B9F1000F20D14FF6FF7388
:1004200000931023F0229421002001F0E0FA4FF60F
:10043000FF7300934FF47843BEA29421002001F093
:100440004BFB4FF6FF734FF47842CDE900239DF844
:100450001730224694217820FFF754FF9CE001E0FA
:10046000681CC5B2705D2E28FAD1B8F1000F24D0F7
:100470009DF81710681C305C30380844C0B28DF805
:1004800017009DF81700092806DD9DF817000A38A7
:10049000C0B28DF81700641C09E039460A20FFF746
:1004A00026FF715D303901FB0044781CC7B228007B
:1004B000A5F10101CDB2F0D13AE09DF81710681C0A
:1004C000305C3038814206DA9DF817000A30C0B23D
:1004D0008DF81700641E9DF81710681C305C3038CA
:1004E000081AC0B28DF817001DE039460A20FFF740
:1004F000FEFE715D30394843A0420AD94FF6FF73C2
:1005000000934FF478438FA2A421002001F0E4FA75
:100510003BE039460A20FFF7EAFE715D303901FB06
:100520001044781CC7B22800A5F10101CDB2DCD17E
:100530004FF6FF7300931023F022A421002001F056
:1005400056FA4FF6FF7300934FF4784379A2A42133
:10055000002001F0C1FA4FF6FF734FF47842CDE965
:1005600000239DF817302246A4217820FFF7CAFE09
:10057000E0B28DF81600200A8DF81500200C8DF8D9
:100580001400200E8DF8130000BF02AB674A6849C3
:100590000420FFF787FE824606B0BDE8F0872DE90C
:1005A000FF4707460E4615469846DDF83090002472
:1005B00046E0285DC11700EB1171091101AA02F88C
:1005C000141001A810F81400092807DD01A810F87C
:1005D0001400373001A901F8140006E001A810F852
:1005E0001400303001A901F81400285DC11700EB98
:1005F00011710911A0EB0111012202EB440201ABC0
:100600009954012000EB440001A9085C09280ADD87
:10061000012000EB4400085C3730012101EB44016C
:1006200001AA50540AE0012000EB440001A9085C33
:100630003030012101EB440101AA5054601CC4B2C6
:10064000042CB6DB00208DF80C00434645A2314651
:100650003846CDF8009001F03FFA434601AA06F172
:10066000100081B23846CDF8009001F035FABDE8AF
:10067000FF8786B000F0AAF900F0E9F900F021FA4E
:100680004FF4E131482000F030FA3AA001F04CFC80
:1006900001F088F94FF6FF7001F0CBF900F016FC7D
:1006A000062038490861E8E03748007810F0800FEC
:1006B0001AD13649522000F0B2FC04461B4800F023
:1006C000EEFC044664B906202E4948614FF6FF73DC
:1006D00000931F23154A64210020FFF760FFCCE040
:1006E000062028490861C8E00224052500BF2749E3
:1006F000522000F094FC0446681EC5B20CB1002DD7
:10070000F5DC0224052500BF084800F0C8FC0446BB
:10071000681EC5B20CB1002DF6DC0224142500BF02
:10072000024800F029FD33E000CA9A3B1000002087
:10073000080000205468652042616C616E6365208A
:1007400069733A00596F7520646F206E6F7420686A
:1007500061766520656E6F756768206D6F6E65796F
:1007600021000000546865204361726420494420E0
:1007700069733A007573617274206973206F6B0A34
:100780000000000000100140140000200E000020B6
:100790000446681EC5B20CB1002DC1DC14B137A0EF
:1007A00001F0C2FB3A480078A0280ED006DC2B28C6
:1007B00049D02D284ED03D285AD152E0A1280ED044
:1007C000A2282DD0A32853D13CE03248C37800930F
:1007D00083784278017830A001F0A6FB49E02C49EB
:1007E000C87902AB2B4A491CFFF7D2FD04469CB9DD
:1007F0002FA001F099FB002606E002A8815D2FA042
:1008000001F092FB701CC6B2102EF6DB2DA001F099
:100810008BFB00F08CFD02E02BA001F085FB28E0B3
:100820001B49C87901F108031A4A491CFFF73AFD30
:1008300004461CB129A001F077FB02E02CA001F0D6
:1008400073FB16E015E0012211461148401CFFF72A
:10085000C4FD0EE0012200210D48401CFFF7BDFD44
:1008600007E0002201210A48401CFFF7B6FD00E026
:1008700000BF00BF00202349087015E75063645390
:10088000656C6563742069732077726F6E670A0008
:10089000180000201000002049443A25303278200A
:1008A00025303278202530327820253032780A0001
:1008B00052656164446174613A0000002530327809
:1008C000200000000A0A00005265616444617461FE
:1008D0002069732077726F6E670A0000577269741F
:1008E00065446174612069732077726F6E670A00D6
:1008F000577269746544617461206973206F6B0A73
:10090000000000001400002000EBC0014FF0E022C6
:1009100051611146096941F00101116100BF4FF0B9
:10092000E021096911F4803FF9D000214FF0E02265
:1009300011619161704742F2283141434FF0E0224A
:1009400051611146096941F00101116100BF4FF089
:10095000E021096911F4803FF9D000214FF0E02235
:10096000116191617047A14A0A400243A04B1A608D
:10097000704700B500209F490861C8601420486195
:1009800000208861C8610846006840F001000860E6
:1009900008464068984908409649486008460068FB
:1009A00096490840934908600846006820F4802072
:1009B00008600846406820F4FE0048600020886017
:1009C00000214FF00060FFF7CEFF00BD30B50024DE
:1009D0000925FFF7CEFF8748006840F4803085493D
:1009E000086000BF83480068400CFBD04FF4806073
:1009F00080494860A81EC5B20846406840EA854064
:100A000048600846406840F4803048607C48006890
:100A100040F032007A4908607648006840F0807003
:100A20007449086000BF73480068400EFBD07148ED
:100A3000406840F002006F49486005E06D4840683A
:100A4000C0F3870404F00304022CF7D130BD08B5CD
:100A50004FF4C060FFF7AAFB25208DF800000120AD
:100A60008DF8010000208DF8020001208DF80300B0
:100A70006846FFF7A0FB08BD6249098811F0200F06
:100A80001ED061490988C8B20D2806D15F4909788E
:100A900041F080015D4A117012E05C49097801F073
:100AA0007F015B4A505459490978491C574A1170D3
:100AB0001146097801F07F013F2901DD0021117005
:100AC00070474C48806940F010004A49886151489D
:100AD00000686FF30B004F4908600846006840F259
:100AE000333108434B49086070472DE9F05F0546F4
:100AF0000E46300101F062F98146474905FB01F0DD
:100B000001F05CF98246494601F018F9074638467B
:100B100001F059F984B2204601F050F98346394674
:100B200001F0D3F882464FF0834101F0D1F88146BD
:100B300001F049F98046240104EB080084B22D48F5
:100B4000806940F004002B4988610846806940F4C0
:100B5000804088613148006820F47F603049C1F8E6
:100B600004080846D0F8040840F40B60C1F80408F3
:100B70002048C06840F480401E49C8600846C068EC
:100B800020F48040C8602748A0F80848264800881C
:100B900042F20C0140EA01002249A1F80C08084683
:100BA000B0F80C0840F48070A1F80C080846B0F8C2
:100BB0000C0840F020001C490880BDE8F09F00BFF1
:100BC0001049098811F0800FFAD0C0F308010E4ACD
:100BD0001180704700BF0B48008810F0400FFAD01A
:100BE00009480088C0F308007047000080FFFF1F1D
:100BF00008ED00E0001002400000FFF8FFFFF6FEE5
:100C00000020024000380140043801401400002058
:100C1000180000200010014040420F00040801406D
:100C200000000140003001400C380140002103E089
:100C300000BF00BF00BF491C8142F9D37047014685
:100C400000BFFF48008810F0020FFAD0FD48018075
:100C500000BFFB48008810F0010FFAD0F948008867
:100C6000C0B27047F848806940F00100F6498861D9
:100C70000846806940F008008861F4480068C0F3C5
:100C80001300F349C1F8040CF0480068F14940EA48
:100C90000100EF49C1F8040C0846D0F8000C20F020
:100CA000FF00C1F8000C0846D0F8000C40F03300FB
:100CB000C1F8000CE448C06940F48040E249C861D2
:100CC000E5480088E549A1F800080846B0F80008A2
:100CD00040F40070A1F800080846B0F8000840F49D
:100CE0008070A1F800080846B0F8000840F0040041
:100CF000A1F80008D8480088A1F800080846B0F814
:100D0000000820F00200A1F800080846B0F800082A
:100D100020F00100A1F800080846B0F8000840F0F3
:100D20003800A1F80008CC480088A1F8000808465F
:100D3000B0F8000840F04000A1F80008704710B576
:100D400002460B460120C64908604FF07E0000EACB
:100D500042042046FFF773FF1846FFF770FF01209B
:100D6000BB49C1F8100C10BD10B50246002401208B
:100D7000BB4908604FF07E0000EA420040F080036B
:100D80001846FFF75CFF0020FFF759FF04460120DB
:100D9000AF49C1F8100C204610BD70B505460C4691
:100DA00000262846FFF7E0FF064646EA04012846EB
:100DB000FFF7C5FF70BD10B51420FFF7D5FF04463F
:100DC00014F0030F03D103211420FFF7E6FF10BD39
:100DD00070B505460C4600262846FFF7C5FF0646B7
:100DE00026EA04012846FFF7AAFF70BD10B50446A5
:100DF000412C26D108210846FFF7EAFF3D211120AA
:100E0000FFF79DFF86211720FFF799FF7F212620FE
:100E1000FFF795FF1E212D20FFF791FF00212C20C9
:100E2000FFF78DFF8D212A20FFF789FF3E212B2020
:100E3000FFF785FF4FF47A70FFF7F8FEFFF7BBFF6F
:100E400001E0012010BD0020FCE700B503211420C3
:100E5000FFF7BEFF00BD00B50220824908604FF0D9
:100E60000A00FFF7E3FE02207949C1F8140C0A20BA
:100E7000FFF7DCFE02207B4908604FF00A00FFF715
:100E8000D5FE0F210120FFF75AFF0F210120FFF7A8
:100E900056FF0A20FFF7CAFE3D211120FFF74FFF42
:100EA0001E212D20FFF74BFF00212C20FFF747FFCD
:100EB0008D212A20FFF743FF3E212B20FFF73FFF24
:100EC00040211520FFF73BFF002000BD00B5FFF7D4
:100ED000C9FEFFF7C0FFFFF7B8FFFFF76CFF412027
:100EE000FFF784FF00BD2DE9FE4F06468846914678
:100EF0009A46DDF830B00220029000200190009068
:100F00000C2E06D00E2E09D1122001901020009038
:100F100005E0772001903020009000E000BF00BF86
:100F2000019840F080010220FFF709FF8021042092
:100F3000FFF74EFF00210120FFF701FF80210A206B
:100F4000FFF72BFF002506E018F805100920FFF732
:100F5000F6FE681C85B24D45F6DB31460120FFF7F1
:100F6000EEFE0C2E03D180210D20FFF716FF48F274
:100F7000A06500BF0420FFF7F7FE0446681E85B297
:100F80002DB114F0010F02D100980442F2D080215B
:100F90000D20FFF71DFFA5B30620FFF7E5FE10F0BB
:100FA0001B0F2FD1002002900198204010F0010F5C
:100FB00001D0012002900C2E26D10A20FFF7D4FE8A
:100FC00004460C20FFF7D0FE00F007072FB1601E8B
:100FD00007EBC0008BF8000003E0E006000E8BF882
:100FE000000004B90124122C00DD1224002506E0C3
:100FF0000920FFF7B9FE0AF80500681C85B2A54272
:10100000F6DB01E00220029080210C20FFF7C5FEF4
:1010100000210120FFF793FE0298BDE8FE8F70B516
:1010200087B005460C4608210846FFF7D1FE072188
:101030000D20FFF784FE03211420FFF7AEFE13E01E
:10104000083800400C38004000100240040C0140F9
:10105000000001400000B0B80038004000300040FF
:10106000140C0140100C01408DF8045006AB0093A5
:1010700001AB012201A90C20FFF735FF064656B946
:101080009DF81800102806D19DF8040020709DF8E6
:101090000500607000E00226304607B070BDF0B574
:1010A00087B00546002708210846FFF791FE00217A
:1010B0000D20FFF744FE80210E20FFF789FE9320CC
:1010C0008DF8040020208DF8050006AB009301ABDD
:1010D000022201A90C20FFF706FF064686B900246C
:1010E00007E001A8005D285501A8005D4740601C8D
:1010F000C4B2042CF5DB01A8005DB84200D0022682
:1011000080210E20FFF749FE304607B0F0BD2DE9E3
:10111000F04107468846154604210520FFF758FE92
:1011200000210120FFF70BFE80210A20FFF735FE8A
:10113000002405E0395D0920FFF701FE601CC4B200
:101140004445F7DB03210120FFF7F9FDFF2400BF31
:101150000520FFF709FE0646601EC4B214B116F062
:10116000040FF5D02220FFF7FFFD28702120FFF7A4
:10117000FBFD6870BDE8F08170B587B0054693202F
:101180008DF8040070208DF8050000208DF80A000D
:1011900000240BE0295D01AAA01C11549DF80A004F
:1011A000295D48408DF80A00601CC4B2042CF1DBB4
:1011B0000DF10B02072101A8FFF7A9FF082108463E
:1011C000FFF706FE06AB009301AB092201A90C2034
:1011D000FFF789FE06462EB99DF81800182801D1A0
:1011E000002600E00226304607B070BD2DE9F04130
:1011F00087B004460D4616461F468DF804408DF80C
:1012000005503068CDF80600B088ADF80A0038689F
:10121000039006AB009301AB0C2201A90E20FFF74F
:1012200062FE8046B8F1000F05D10820FFF79CFD53
:1012300010F0080F01D14FF00208404607B0BDE89A
:10124000F081F0B587B005460E4630208DF80400D9
:101250008DF805500DF10602022101A8FFF757FF96
:1012600006AB009301AB042201A90C20FFF73BFE63
:1012700007466FB99DF81800902809D1002404E0B2
:1012800001A8005D3055601CC4B2102CF8DB00E0F2
:101290000227384607B0F0BDF0B587B006460F46C6
:1012A000A0208DF804008DF805600DF106020221E2
:1012B00001A8FFF72CFF06AB009301AB042201A9A4
:1012C0000C20FFF710FE05464DB99DF818000428C4
:1012D00005D19DF8040000F00F000A2800D0022577
:1012E00015BB002404E0385D01A90855601CC4B298
:1012F000102CF8DB05AA102101A8FFF708FF06ABA8
:10130000009301AB122201A90C20FFF7ECFD05466A
:101310004DB99DF81800042805D19DF8040000F08F
:101320000F000A2800D00225284607B0F0BD10B5EE
:1013300087B050208DF8040000208DF805000DF1D5
:101340000602022101A8FFF7E2FE06AB009301AB03
:10135000042201A90C20FFF7C6FD0446002007B0B7
:1013600010BD000006E04FF47A7100E0491E00292C
:10137000FCD1401E0028F6D170474FF0C0410880D4
:1013800070474FF0C0421080FA4A11807047014602
:101390004FF0C0400180F74800887047F549088049
:1013A0007047F4480088704710B54FF40050F24978
:1013B00008604FF03200FFF7D5FF4FF40050EF49BF
:1013C000C1F810043220FFF7CDFF10BD10B5FFF7B4
:1013D000EBFF3220FFF7C6FF4FF40041E520FFF797
:1013E000D0FF01210020FFF7CCFF4FF480710120D6
:1013F000FFF7C7FF4FF4E0610220FFF7C2FF302183
:101400000320FFF7BEFF00210420FFF7BAFF40F2E0
:1014100002210820FFF7B5FF00210920FFF7B1FFE7
:1014200000210A20FFF7ADFF00210C20FFF7A9FFE4
:1014300000210D20FFF7A5FF00210F20FFF7A1FFDE
:1014400000211020FFF79DFF07211120FFF799FFD2
:1014500000211220FFF795FF00211320FFF791FFD5
:101460009620FFF77FFF41F2B0711020FFF789FF50
:1014700007211120FFF785FF3220FFF773FF4FF49C
:101480009D711220FFF77DFF3220FFF76BFF4FF4B5
:10149000D0511320FFF775FF0C212920FFF771FFB2
:1014A0003220FFF75FFF00213020FFF76AFF40F294
:1014B00005513120FFF765FF04213220FFF761FF5E
:1014C00006213520FFF75DFF40F207713620FFF758
:1014D00058FF40F205113720FFF753FF0221382053
:1014E000FFF74FFF40F207713920FFF74AFF40F244
:1014F00004713C20FFF745FF40F607013D20FFF750
:1015000040FF00215020FFF73CFFEF215120FFF763
:1015100038FF00215220FFF734FF40F23F115320E3
:10152000FFF72FFF4FF41C516020FFF72AFF012126
:101530006120FFF726FF00216A20FFF722FF00212C
:101540002120FFF71EFF00212020FFF71AFF0021B6
:101550008020FFF716FF00218120FFF712FF0021F6
:101560008220FFF70EFF00218320FFF70AFF0021F2
:101570008420FFF706FF00218520FFF702FF1021DE
:101580009020FFF7FEFE00219220FFF7FAFE0321D4
:101590009320FFF7F6FE4FF488719520FFF7F1FED8
:1015A00000219720FFF7EDFE00219820FFF7E9FECC
:1015B00040F233110720FFF7E4FE3220FFF7D2FE9E
:1015C00010BD704722204FF0C04108807047222094
:1015D0004FF0C0410880704766490880704710B5D9
:1015E000FFF7DFFEFFF7DDFE04462046FFF7D6FEDD
:1015F000204610BD70B504460D4621462020FFF759
:10160000C0FE29462120FFF7BCFE2220FFF7B5FED1
:1016100070BD70B5049C50254FF0C0463580554DC7
:10162000288051253580534D2A80C4B152253580FC
:10163000504D2980532535804E4D2B800325358014
:1016400041F230054B4E358020254FF0C0463580A5
:10165000484D288021253580464D298019E05225A6
:101660004FF0C0463580434D298053253580414D8C
:101670002B800325358041F210053E4E3580202514
:101680004FF0C04635803B4D288021253580394DAF
:101690002B8022254FF0C046358070BD70B50546C1
:1016A0000320FFF774FE044624F0300444EA0514D6
:1016B00021460320FFF765FE70BD70B50546032087
:1016C000FFF765FE044615B124F4805401E044F4AC
:1016D000805421460320FFF754FE70BD10B5FFF77C
:1016E00060FEFFF75EFE044604F4FC6141EAD4218B
:1016F0004FF4784202EAC42241EA0200FFF74EFEAC
:1017000010BD10B520234FF0C0442380194B188022
:1017100021232380174B198022232380154B1A8005
:1017200010BD10B5024620234FF0C0442380114B5A
:101730001A80212323800F4B1980222323800D4BF5
:1017400018881888188010BD2DE9FF4F83B0814696
:101750004FF0000AD3460598A0EB090504990698B6
:10176000461ACDF8049004980090002D08DD01275A
:101770000CE0000000000260141401400010014061
:101780000DB9002702E04FF0FF376D42002E02DD59
:101790004FF0010806E016B94FF0000802E04FF0E4
:1017A000FF387642B54201DD2C4600E03446002089
:1017B00002901AE0009881B2019880B2109AFFF767
:1017C000A0FFAA44B344A24504DDAAEB040A019891
:1017D00038440190A34504DDABEB040B0098404472
:1017E00000900298401C80B20290611C02988842CE
:1017F000E0DD07B0BDE8F08F2DE9F04706460F4663
:1018000090469A46002445460320A0EB480952E042
:101810003A1B91B2721B90B25246FFF772FF3A1B0D
:1018200091B2721990B25246FFF76BFF7A1991B2DA
:10183000321B90B25246FFF764FF3A1B91B2721B03
:1018400090B25246FFF75DFF7A1B91B2321B90B205
:101850005246FFF756FF3A1991B2721990B25246AA
:10186000FFF74FFF7A1B91B2321990B25246FFF741
:1018700048FF7A1991B2321990B25246FFF741FFF0
:101880003A1991B2721B90B25246FFF73AFF641CAC
:10189000B9F1000F03DAA000801D814404E0601B51
:1018A00080000A3081446D1E7A1991B2321990B2CB
:1018B0005246FFF726FFAC42AADDBDE8F087CD48CF
:1018C000406940F48070CB49486141F250004106C4
:1018D0000860C94848606FF07040C84908604FF020
:1018E0002040006840F001004FF020410860704740
:1018F000C048806940F07100BE498861C0480068F6
:1019000020F07F40BE4908600846006840F04C5017
:101910000860BC48006820F47000C1F80404084660
:10192000D0F8040440F44010C1F80404B64800683C
:10193000B64900EA0100B249C1F80004B2480068A3
:10194000B34940EA0100AE49C1F800040846D0F8A6
:10195000040400F47F00C1F80404AA480068AD49FB
:1019600040EA0100A649C1F804040846D0F800087E
:1019700020F07040C1F800080846D0F8000840F098
:101980003040C1F800080846D0F804084FF00000C5
:10199000C1F804080846D0F8040840F0BB30C1F88C
:1019A0000408704710B5FFF78AFF6420FFF7DAFCE0
:1019B000FFF79EFF8020924908616420FFF7D2FC68
:1019C00040208F490861FFF701FD10BD10B5FFF7FA
:1019D000F8FD10BD30B5014601F01F04C1F34513F9
:1019E000CA0AE50205EB43151544A8B230BD2DE93E
:1019F000F84306460F4614461D46DDF820900123A5
:101A00007819401E009383B23019401E82B23946C5
:101A10003046FFF7FEFD4FF0000804E07E48A0F8D6
:101A2000009008F1010804FB05F04045F6D8BDE838
:101A3000F88338B504460023009340F23F13EF22A9
:101A400000210846FFF7E5FD002502E0724804800A
:101A50006D1CB5F5963FF9D338BD2DE9F84F064614
:101A60000F4690469946DDF828A000240025A3469D
:101A70000023009340F23F13EF2200210846FFF7B6
:101A8000C8FD00BF24E0A8F1200004EB001063496A
:101A900011F800B0002517E0C5F107004BFA00F07F
:101AA00010F0010F07D03A1991B2721990B24A465C
:101AB000FFF727FE06E03A1991B2721990B252462A
:101AC000FFF71FFE681C85B2082DE5DB601C84B2A1
:101AD000102CD8DBBDE8F88F2DE9FC4F0446884672
:101AE00015469946DDF82CA04FF0000B0020019020
:101AF0000023009340F23F13EF2200210846FFF736
:101B000088FD3BE028787F2838DA002629E028780D
:101B1000203806EB0010414911F800B000271CE006
:101B2000C7F107004BFA00F010F0010F08D008EBE6
:101B3000060291B2E21990B24A46FFF7E2FD0AE0CE
:101B4000BAF1010F07D008EB060291B2E21990B288
:101B50005246FFF7D6FD781C87B2082FE0DB701CD9
:101B600086B2102ED3DB6D1C04F1080084B2E02C89
:101B700004DD002408F110001FFA80F828780028FE
:101B8000C0D1BDE8FC8F2DE9FC5F05460E46174627
:101B900098460C9C0023009340F23F13EF22002153
:101BA0000846FFF736FD31462846FFF723FDB346CA
:101BB0001AE0AA4611E014F8010B019014F8019BF9
:101BC0004FEA09290198484480B201900198FFF733
:101BD000E5FB0AF101001FFA80FAE8195045EADC3A
:101BE0000BF101001FFA80FB06EB08005845E0DC12
:101BF000BDE8FC9F0010024002050010040100A097
:101C000000100140041401400014014000FF000FC7
:101C1000BB00BBB0BBBB00BB00000260E4230008FC
:101C2000F0B480EA0102D20F4300B3EB410F02D2BD
:101C30000346084619464B0042D0C30DDDB2C1F33E
:101C4000C7542C1B202C35DAC1F3160141F40005D2
:101C500002B16D42C4F1200605FA06F1254128447F
:101C6000B3EBD05F23D0C2B1012CA0EBC35009DC91
:101C7000F0BC4FF0004202EAC35200F50000DBB2B4
:101C800000F0F1B8400000F1807000EBC350A0F10B
:101C9000807040EAD170490009E0490841EAC0710A
:101CA000A0EBC35000F50000400800EBC350F0BCAF
:101CB00000F0D0B85142012303EB4101801AF6E74E
:101CC000F0BC704781F00041AAE780F00040A7E730
:101CD00080EA010210B502F00042400026D04B001D
:101CE00023D04FEA106101EB1361C0F35600C3F338
:101CF000560340F4000043F40003A0FB0330A1F1BD
:101D00007F014FEA00401C0401D000F1010050EABD
:101D1000134001D44000491EC3B20C0604EBD0109E
:101D2000401C4008802B02D003E0002010BD20F0B2
:101D30000100002900DA0020104310BD80EA0102F2
:101D400002F0004330B430F0004221F0004015D0E2
:101D5000A0B1C0F3C755C2F3C754C2F31601C0F314
:101D60001600651B41F4000140F400007D358142FE
:101D700001D36D1C00E04900002D02DA30BC0020C8
:101D800070474FF400020024814201D3091A144322
:101D900052084FEA4101F7D151B1814202D14FF0CF
:101DA000004105E002D24FF0010101E06FF00101B6
:101DB00004EBC55030BC184400F04CB89623002208
:101DC000114600F050B820F00040C10DC0F31600DD
:101DD00040F400007F2901DA00207047962903DCD7
:101DE000C1F19601C84070479639884070472DE987
:101DF000F05F0546002092469B468846064681468F
:101E000040241DE0284641464746224600F07BF824
:101E1000B0EB0A0052465B4671EB0B0110D3104643
:101E20001946224600F060F82D1A67EB01084F466C
:101E300022460120002100F057F817EB00094E411F
:101E4000201EA4F10104DDDC484631462A46434603
:101E5000BDE8F09F0029A8BF7047401C490008BF9B
:101E600020F00100704710B4B0FA80FC00FA0CF0CA
:101E700050EA010404BF10BC704749B1CCF1200402
:101E800021FA04F411FA0CF118BF0121214308438F
:101E9000A3EB0C01CB1D4FEA00614FEA102048BFB5
:101EA0000020BCBF10BC704700EBC3501044002999
:101EB000A4BF10BC7047401C490008BF20F00100BF
:101EC00010BC7047064C074D06E0E06840F0010387
:101ED00094E8070098471034AC42F6D3FEF72CF98B
:101EE000E4290008042A0008202A04DB203A00FA2A
:101EF00002F1002070479140C2F1200320FA03F361
:101F0000194390407047202A04DB203A21FA02F05E
:101F10000021704721FA02F3D040C2F12002914023
:101F200008431946704700000FB4054B10B503A9CC
:101F3000044A029800F018F810BC5DF814FB000089
:101F4000750100080000002002E008C8121F08C147
:101F5000002AFAD170477047002001E001C1121F2A
:101F6000002AFBD1704700002DE9FF4F8DB00546D8
:101F70000F460026EEE1252879D100246D1CF94A90
:101F8000A246A14601212B78203B01FA03F0104222
:101F900002D004436D1CF6E728782A2810D06FF091
:101FA0002F022878A0F13001092915D80AEB8A01FF
:101FB00002EB410144F0020400EB010A6D1CF0E762
:101FC00057F804ABBAF1000F03DA44F40054CAF135
:101FD000000A44F002046D1C28782E2817D115F849
:101FE000010F44F004042A280ED06FF02F02287845
:101FF000A0F1300109290AD809EB890102EB41015E
:1020000000EB01096D1CF2E757F8049B6D1C287862
:102010006C280FD006DC4C2817D068280DD06A2811
:1020200014D104E0742810D07A280FD10DE044F4C4
:1020300000140AE044F4801401E044F44014697888
:10204000814202D16D1C04F580146D1C95F800C00E
:10205000BCF16E0F2AD012DCBCF1630F3CD007DC60
:10206000BCF1000F76D0BCF1580F19D1ACE018E0EC
:10207000BCF1640F6FD0BCF1690F11D16BE0BCF102
:10208000730F32D006DCBCF16F0F71D0BCF1700F52
:1020900006D19BE0BCF1750F6BD0BCF1780F69D015
:1020A0006046DDE90F129047761C52E1C4F30250FE
:1020B000022806D003280AD0042801CF0AD00660DF
:1020C00047E101CF4FEAE671C0E9006141E101CF8C
:1020D00006803EE106703CE101CF8DF80000002053
:1020E0008DF80100EB46012003E057F804BB4FF0E8
:1020F000FF3061074FF0000102D40DE008F101014B
:10210000884649450FDA8045F8DB1BF8081000299E
:10211000F4D108E008F1010188468142FADB1BF89E
:1021200008100029F6D1DDE90F23AAEB080081464B
:10213000214600F040F9304400EB080604E0DDE9F8
:102140000F121BF8010B9047B8F10108F7D2214696
:102150004846F9E002E10A20C4F302524FF0000BB6
:102160000890022A07D001CFC117032A09D00AE03C
:1021700035E022E023E0FF1D27F00707F7E8020122
:1021800005E000B2C117042A01D140B2C1170029ED
:1021900006DA0023D0EB030063EB01012D2202E0FD
:1021A000220504D52B228DF82420012203E0E2072A
:1021B00001D02022F7E7904653E00A2110E01020DA
:1021C0004FF0000B08900EE0102109E010214FF0B5
:1021D000000B44F004044FF00809089103E00821C3
:1021E0004FF0000B0891C4F30252022A04D001CF31
:1021F0000021032A06D007E0FF1D27F00707F7E8B4
:10220000020105E080B20021042A01D1C0B2002100
:102210004FF00008220724D5BCF1700F2AD0089B8C
:1022200083F0100353EA0B0309D150EA010206D0F0
:1022300030228DF824208DF825C002229046089B7C
:1022400083F0080353EA0B030BD150EA010201D1DA
:10225000620706D530228DF824204FF00108A9F13D
:10226000010941A2BCF1580F00D044A20B9208AA68
:102270000A920FE040228DF824200122DEE75B461F
:10228000089AFFF7B4FD0B9B9B5C0A9AA2F101022E
:102290000A92137050EA0102F1D10A98ADEB0000E6
:1022A00000F1200B600702D524F4803401E04FF0E8
:1022B0000109002049465A46D94501DDA1EB02003B
:1022C00000EB0B0141440890AAEB01000B90E003E6
:1022D00006D4DDE90F2321460B9800F06CF8064484
:1022E0004FF000090DF1240A07E0DDE90F121AF89A
:1022F00009009047761C09F10109C145F5DBE003AF
:102300000CD5DDE90F2321460B9800F054F8064464
:1023100004E0DDE90F1230209047761C0899481E32
:1023200008900029F5DC08E00A980A990078491C11
:102330000A91DDE90F129047761CBBF10001ABF169
:10234000010BF1DC0B982146DDE90F2300F020F8AA
:1023500006446D1C287800287FF40DAE11B030467D
:10236000BDE8F08F0928010030313233343536377B
:102370003839414243444546000000003031323391
:1023800034353637383961626364656600000000B1
:102390002DE9F0410446002517461E46880405D461
:1023A00006E039462020B04705F10105641EF8D546
:1023B0002846BDE8F0812DE9F0410446002530278C
:1023C00090461E46C80300D42027880405D506E0A1
:1023D00041463846B04705F10105641EF8D5284648
:1023E000BDE8F081000000000000000000000000D7
:1023F000000000000000183C3C3C18181800181899
:102400000000000000666666240000000000000076
:10241000000000000000006C6CFE6C6C6CFE6C6CCC
:102420000000000018187CC6C2C07C0686C67C1856
:102430001800000000000000C2C60C183060C686FC
:10244000000000000000386C6C3876DCCCCCCC7618
:10245000000000000030303060000000000000008C
:102460000000000000000C18303030303030180C04
:1024700000000000000030180C0C0C0C0C0C183084
:10248000000000000000000000663CFF3C66000009
:1024900000000000000000000018187E181800005E
:1024A00000000000000000000000000000181818E4
:1024B0003000000000000000000000FE00000000EE
:1024C00000000000000000000000000000001818DC
:1024D000000000000000000002060C183060C08000
:1024E0000000000000007CC6C6CED6D6E6C6C67C7C
:1024F0000000000000001838781818181818187E06
:102500000000000000007CC6060C183060C0C6FE4B
:102510000000000000007CC606063C060606C67CDD
:102520000000000000000C1C3C6CCCFE0C0C0C1ECF
:10253000000000000000FEC0C0C0FC0E0606C67C05
:102540000000000000003860C0C0FCC6C6C6C67CE3
:10255000000000000000FEC606060C1830303030C7
:102560000000000000007CC6C6C67CC6C6C6C67C8D
:102570000000000000007CC6C6C67E0606060C7879
:1025800000000000000000001818000000181800EB
:1025900000000000000000001818000000181830AB
:1025A00000000000000000060C18306030180C0617
:1025B00000000000000000000000FE0000FE00001F
:1025C000000000000000006030180C060C1830609D
:1025D0000000000000007CC6C60C1818180018186F
:1025E000000000000000007CC6C6DEDEDEDCC07C31
:1025F00000000000000010386CC6C6FEC6C6C6C685
:10260000000000000000FC6666667C66666666FC8C
:102610000000000000003C66C2C0C0C0C0C2663CF2
:10262000000000000000F86C6666666666666CF87E
:10263000000000000000FE6662687868606266FE66
:10264000000000000000FE6662687868606060F06C
:102650000000000000003C66C2C0C0DEC6C6663A8C
:10266000000000000000C6C6C6C6FEC6C6C6C6C676
:102670000000000000003C18181818181818183C22
:102680000000000000001E0C0C0C0C0CCCCCCC7814
:10269000000000000000E6666C6C78786C6666E608
:1026A000000000000000F06060606060606266FE34
:1026B000000000000000C6EEFEFED6C6C6C6C6C6B6
:1026C000000000000000C6E6F6FEDECEC6C6C6C6A6
:1026D000000000000000386CC6C6C6C6C6C66C380E
:1026E000000000000000FC6666667C60606060F0D0
:1026F0000000000000007CC6C6C6C6C6C6D6DE7C8A
:102700000C0E00000000FC6666667C6C666666E681
:102710000000000000007CC6C660380C06C6C67CFF
:102720000000000000007E7E5A1818181818183C87
:10273000000000000000C6C6C6C6C6C6C6C6C67C27
:10274000000000000000C6C6C6C6C6C6C66C38106B
:10275000000000000000C6C6C6C6C6D6D6FE6C6C19
:10276000000000000000C6C66C6C38386C6CC6C631
:10277000000000000000666666663C181818183CE9
:10278000000000000000FEC6860C183060C2C6FEC5
:102790000000000000003C30303030303030303C41
:1027A0000000000000000080C0E070381C0E06022F
:1027B0000000000000003C0C0C0C0C0C0C0C0C3C41
:1027C0000000000010386CC600000000000000008F
:1027D00000000000000000000000000000000000F9
:1027E00000FF000030301800000000000000000072
:1027F000000000000000000000780C7CCCCCCC76FF
:10280000000000000000E06060786C66666666DCD0
:102810000000000000000000007CC6C0C0C0C67CF4
:102820000000000000001C0C0C3C6CCCCCCCCC7626
:102830000000000000000000007CC6FEC0C0C67C96
:10284000000000000000386C6460F060606060F0C0
:1028500000000000000000000076CCCCCCCCCC7C8A
:102860000CCC78000000E060606C7666666666E618
:102870000000000000001818003818181818183C3C
:102880000000000000000606000E0606060606060A
:1028900066663C000000E06060666C78786C66E616
:1028A0000000000000003818181818181818183CF4
:1028B000000000000000000000ECFED6D6D6D6D600
:1028C000000000000000000000DC666666666666C8
:1028D0000000000000000000007CC6C6C6C6C67C22
:1028E000000000000000000000DC66666666667C92
:1028F0006060F000000000000076CCCCCCCCCC7C3A
:102900000C0C1E000000000000DC7662606060F0CD
:102910000000000000000000007CC660380CC67C8F
:10292000000000000000103030FC30303030361C29
:10293000000000000000000000CCCCCCCCCCCC7659
:1029400000000000000000000066666666663C1835
:10295000000000000000000000C6C6C6D6D6FE6C0F
:10296000000000000000000000C66C3838386CC65B
:10297000000000000000000000C6C6C6C6C6C67E35
:10298000060CF8000000000000FECC183060C6FE07
:102990000000000000000E18181870181818180E03
:1029A000000000000000181818180018181818184F
:1029B000000000000000701818180E181818187081
:1029C00000000000000076DC0000000000000000B5
:1029D000000000000000000010386CC6C6C6FE00F3
:1029E00000000000042A0008000000201800000079
:1029F000481F00081C2A000818000020400400009E
:102A0000581F00080000000000000000FFFFFFFF4B
:0C2A1000FFFF00000000000000000000BC
:0400000508000131BD
:00000001FF
