:03000000020509ED
:0C050900787FE4F6D8FD75819C02055057
:1009DD00D2B7D2A3C2B70020B607E53A70037F01A4
:1009ED002220A407E53A70037F0322D2B7D2A3C217
:1009FD00A30020B607E53A70037F022220A407E585
:090A0D003A70037F04227FFF22EE
:100A72001042000000000000FF0780690000000033
:100A82000000108D000000000000000000000000C7
:0C0A9200000000000687000000000000CB
:100AF000EF4E601EEF1F70011EE4FCFDC3ED9490ED
:100B0000EC940150EB0000000000000DBD00010C52
:020B100080EA79
:010B120022C0
:100B4C00E4FBD2B57F787E00120AF0C2B57F787EC6
:080B5C0000120AF00BBB03EAD2
:010B6400226E
:0C0C0300D2B57FBC7E02120AF0C2B522FE
:100ACB00E4F5937594FFF591F592D2A47595107595
:100ADB009688D2B0D2B675B14175B2A2D2C175B3F8
:050AEB000275B40422B5
:0E0BD900C2ACC2998F993099FDC299D2AC225C
:0F0BCA00759850759CFB758E11E4F5A2D2AC2284
:03002300020A16B8
:0B0A1600C0E0C0D075D000C000C007D9
:100A2100C298753900AF997469253FF8A607053F4B
:0A0A3100E53F786966700375400127
:090A3B00D007D000D0D0D0E03289
:0E0BE7001208BF120003120BA77F4102090D76
:0E0BF500758901758C79758AFED2A9D28C2281
:03000B00020A9F47
:100A9F00C0E0C0D0758901758C69758AFE0539056E
:100AAF0041E539C3940A400975390A753F0075400D
:0C0ABF0000E53A6002153AD0D0D0E032D9
:100A4400120ACB120BE7C2AF120BF5120BCAD2AFCC
:100A5400E4F558F556F541F53AF539F554F555F5FB
:0E0A640052F553F538F53FF540F557020C03F7
:100328001208BF7B007A0079697F2612085E8F0960
:10033800E509600302045D7B007A00796B120611FF
:100348008F09E509600302045D783B7C007D007B32
:10035800007A00796B7E007F041202827B007A00AB
:10036800793B12068C8F09E509600302045DE538C4
:1003780064A37033F538AD53F50F75100075113B54
:10038800FB7A0079877F601207828F09E50960038D
:10039800020433AF537B007A0079421207078F09B2
:1003A800E5096050020433E53864A17049F538ADB9
:1003B80053F50F75100075113BFB7A0079877F6044
:1003C8001207828F09E50960028060AF537B007ACB
:1003D80000798D1207F78F09E5096002804DE4F571
:1003E80008748D2508F8E6FF120BD90508E508C33F
:1003F800941040ED8039E53864A27039F538AD5372
:10040800F50F75100075113BFB7A0079877F601234
:1004180007828F09E50960028011AF537B007A00DB
:1004280079591207078F09E5096004755801227583
:1004380056010209A0E538B4A51BE4F538F508749F
:100448003B2508F8E6FF120BD90508E508C3940414
:0504580040ED755601A6
:01045D00227C
:10045E00786AE6245F601314602F14605D240360D5
:10046E00030205037538A50205037538A1E4FF7470
:10047E006B2FF8E6FE74872FF8A6060FBF06F078EE
:10048E0071E6755200F553806C7538A2E4FF746BFB
:10049E002FF8E6FE74872FF8A6060FBF06F07871C8
:1004AE00E6755200F553E4FF74722FF8E6FE7459A8
:1004BE002FF8A6060FBF10F0803B7538A3E4FF742B
:1004CE006B2FF8E6FE74872FF8A6060FBF06F0789E
:1004DE0071E6755200F553E4FF74722FF8E6FE7460
:1004EE00422FF8A60674722FF8E6FE744C2FF8A66B
:0A04FE00060FBF06E4E4F540F53FE9
:0105080022D0
:10095800120A441209DD7554008F55E555640145A6
:1009680054700B753A0F7FAA120BD97538A5E55844
:100978006006E4F558120B4CE5566006E4F556128D
:100988000C03E540600312045EE541C3940240C3D2
:08099800E4F54112032880BBC5
:10000E00E4FDFCC3ED9FEC9E500A0000000DBD0008
:04001E00010C80EF62
:0100220022BB
:100B3200E4FFFEEF25E0FFC286000030C103430759
:090B420001D28600000EBE08EA93
:010B4B002287
:100B1300E4FEEF30E704D2878002C2870000C2867A
:0E0B23000000D2860000EF25E0FF0EBE08E4C1
:010B310022A1
:08085E008F0A8B0B8A0C890D37
:10086600120B7C7D077F0D120B697D037F14120B23
:10087600B9850A10752B01752C00752D00752E1083
:10088600752F0075300075310E7A00791012003C14
:10089600EF7023E50F6410450E701BAB0BAA0CA975
:1008A6000DE5101202D5AB0BAA0CA90D900001E5BF
:0808B600111202E780027FFE2F
:0108BE002217
:060611008B0A8A0B890C24
:10061700E4F50E120B7CE4FD7F0D120B697D807FE4
:100627000E120B80751193751220752B02752C0015
:10063700752D00752E11752F0075300075310F7BE4
:10064700007A0079117F0C1200408F0DE50D702B99
:10065700FF74112FF8E6AB0AAA0BA90C8F827583DA
:10066700001202E774112FF8E6620E0FBF04E2745E
:10067700112FF8E6650E6003750DFE7D807F0E1263
:040687000BB9AF0DEF
:01068B00224C
:06068C008B0A8A0B890CA9
:10069200750F93751070E4F515FFAB0AAA0BA90C40
:1006A2008F827583001202A8FE74112FF8A6068F9E
:1006B200827583001202A862150FBF04DD75250042
:1006C2007526007527167B007A00790F7D071205C3
:1006D2009B120B7C752B09752C00752D00752E0F46
:1006E200752F0075300075310D7B007A00790F7F10
:1006F2000C120040EF700BE50E6418450D7003FFFD
:0407020080027FFEF4
:0107060022D0
:060782008B0C8A0D890EAC
:100788008F158D16E4FFAB0CAA0DA90E8F82758309
:10079800001202A8FE74172FF8A6060FBF06E7E49A
:1007A800FFAB0FAA10A9118F827583001202A8FE51
:1007B800741D2FF8A6060FBF06E7752B0C752C00C5
:1007C800752D00752E15752F007530007531137B4A
:1007D800007A0079157F0E1200408F12E512700919
:0E07E8007F08120B92EF20E3037512FEAF1292
:0107F60022E0
:0607F7008B0A8A0B890C3D
:1007FD00750F308F107525007526007527117B003C
:10080D007A00790F7D0212059B752B04752C0075EE
:10081D002D00752E0F752F0075300075310D7B0075
:10082D007A00790F7F0C120040EF7022E50E649074
:10083D00450D701AFE740F2EF8E6AB0AAA0BA90C23
:10084D008E827583001202E70EBE10E980027FFED4
:01085D002278
:060707008B0A8A0B890C2D
:10070D00750FA08F107525007526007527117D02B8
:10071D00120595752B04120026EF7010E50E64047A
:10072D00450D7008E50F540F640A60027FFEEF70EF
:10073D0043FEAB0AAA0BA90C8E827583001202A888
:10074D00FD740F2EF8A6050EBE10E7752500752653
:10075D000075271F7D10120595752B12120026EFBF
:10076D007010E50E6404450D7008E50F540F640A12
:04077D0060027FFE99
:010781002255
:1009A000750D50E4F50EF52575260075270FFB7AB9
:1009B00000790D7D0212059B752B04752C00752D99
:1009C00000752E0D752F0075300075310B7B007A88
:0C09D00000790D7F0C1200408F0A7F00A0
:0109DC0022F8
:060595007B007A00790FE3
:08059B008B218A2289238D24A3
:1005A3007D047F05120B80120B657D807F0A120B81
:1005B300B9E4F528E528C395245019AB21AA22A94B
:1005C300238528827583001202A8FD7F09120B6917
:1005D300052880E07D037F01120B697528FF7F05E5
:1005E300120B921528E5286004EF30E2F17F221206
:1005F3000B92AB25AA26A927EF1202D57F21120B56
:0E06030092AB25AA26A927900001EF0202E77C
:1008BF00D2A77F0A7E0012000EC2A712000ED2A787
:1008CF0012000E7D0F7F01120B697F0A7E0012004E
:1008DF000E7D3D7F11120B697D1E7F2D120B69E47A
:1008EF00FD7F2C120B697D8D7F2A120B697D3E7F58
:0E08FF002B120B697D407F15120B697F0022C2
:10090D00EF64417040120B7C7D3D7F11120B697DB0
:10091D00867F17120B697D7F7F26120B697D1E7FE7
:10092D002D120B69E4FD7F2C120B697D8D7F2A1230
:10093D000B697D3E7F2B120B697FE87E0312000E43
:0B094D00120BA780037FFF227F002217
:100B9200E4FEC285EF25E0547E4480FF120B13125F
:040BA2000B32D285BB
:010BA600222C
:040B6500E4FD7F012B
:100B6900C285EF25E0547EFF120B13AF05120B135C
:020B7900D28523
:010B7B002257
:020BB900AC0787
:0F0BBB00E4FE120B92AE07AF04ED4EFD020B6984
:040B7C007D087F0869
:020B8000AC07C0
:100B8200E4FE120B92AE07AF04EDF45EFD020B69B8
:10002600752C00752D00752E0F752F007530007517
:0A003600310D7A00790F7B007F0C7A
:080040008F278B288A29892AE9
:100048007532FEE4F533F534E52724F4600C24FE1C
:10005800700E753312753410800675337775343029
:10006800E5334480FD7F02120B697D807F04120B0B
:1000780080120B657D807F0A120BB9E4F536F537DF
:10008800C3E537952BE5369400501FAB28AA29A95C
:100098002A8537828536831202A8FD7F09120B69EB
:1000A8000537E53770DA053680D6AD277F01120BA4
:1000B80069E527B40C077D807F0D120BB9753607EB
:1000C8007537D07F04120B928F35E53715377002DC
:1000D8001536E53745366009E53520E004553460C6
:1000E800E27D807F0D120B80E537453670030201F3
:1000F800A57F06120B92EF541B60030201A2F53292
:10010800E535553330E0037532FFE527640C6003AD
:100118000201A57F0A120B928F357F0C120B92EF0A
:100128005407FD6021E53524FFFFE434FFFEEF7836
:1001380003C333CE33CED8F97C002DFFEC3EAB2F72
:10014800AA30A931800FE53575F008A4FFAB2FAAB6
:1001580030A931E5F08FF0120309E53570037535E4
:1001680001E535D394124003753512E4F536F537B9
:10017800C3E5379535E536940050227F09120B9276
:10018800AB2CAA2DA92E853782853683EF1202E77C
:100198000537E53770DA053680D67532FE7D807F03
:0901A8000C120BB9120B65AF3209
:0101B100222B
:100BA7007F14120B92EF540370077D037F14120B0F
:010BB700B984
:010BB800221A
:070003007D037F14020B8056
:10051500020958E493A3F8E493A34003F68001F29B
:1005250008DFF48029E493A3F85407240CC8C333E7
:10053500C4540F4420C8834004F456800146F6DFB6
:10054500E4800B0102040810204080900A72E47ECA
:10055500019360BCA3FF543F30E509541FFEE493AB
:10056500A360010ECF54C025E060A840B8E493A372
:10057500FAE493A3F8E493A3C8C582C8CAC583CA9D
:10058500F0A3C8C582C8CAC583CADFE9DEE780BE55
:010A9E000057
:1001B200E709F608DFFA8046E709F208DFFA803E2F
:1001C20088828C83E709F0A3DFFA8032E309F6081C
:1001D200DFFA8078E309F208DFFA807088828C8384
:1001E200E309F0A3DFFA806489828A83E0A3F60838
:1001F200DFFA805889828A83E0A3F208DFFA804C12
:1002020080D280FA80C680D4806980F280338010E8
:1002120080A680EA809A80A880DA80E280CA803351
:1002220089828A83ECFAE493A3C8C582C8CCC583C9
:10023200CCF0A3C8C582C8CCC583CCDFE9DEE78099
:100242000D89828A83E493A3F608DFF9ECFAA9F018
:10025200EDFB2289828A83ECFAE0A3C8C582C8CC6E
:10026200C583CCF0A3C8C582C8CCC583CCDFEADE87
:10027200E880DB89828A83E493A3F208DFF980CCE9
:1002820088F0EF60010E4E60C388F0ED2402B404E2
:100292000050B9F582EB2402B4040050AF23234589
:0602A200822390020273AA
:1002A800BB010CE58229F582E5833AF583E022500B
:1002B80006E92582F8E622BBFE06E92582F8E22255
:0D02C800E58229F582E5833AF583E493226F
:1002D500BB010689828A83F0225002F722BBFE0108
:0202E500F32202
:1002E700F8BB010DE58229F582E5833AF583E8F04D
:1002F700225006E92582C8F622BBFE05E92582C8F9
:02030700F222E0
:10030900BB010A89828A83F0E5F0A3F0225006F73F
:0F03190009A7F01922BBFE06F3E5F009F319223C
:00000001FF
